:100000000C9462000C948A000C948A000C948A0070
:100010000C948A000C948A000C948A000C948A0038
:100020000C948A000C948A000C948A000C944E0361
:100030000C948A000C948A000C948A000C948A0018
:100040000C9404030C948A000C94D2020C94AC021D
:100050000C948A000C948A000C948A000C948A00F8
:100060000C948A000C948A000000000023002600F3
:10007000290000000000240027002A0000000000E2
:10008000250028002B0004040404040404040202D4
:100090000202020203030303030301020408102007
:1000A0004080010204081020010204081020000012
:1000B0000008000201000003040700000000000027
:1000C00000006E0511241FBECFEFD8E0DEBFCDBF0C
:1000D00011E0A0E0B1E0E2E6FBE002C005900D9285
:1000E000AA32B107D9F722E0AAE2B1E001C01D921D
:1000F000A030B207E1F710E0C2E6D0E004C02197DB
:10010000FE010E949B05C136D107C9F70E94720407
:100110000C94AF050C940000CF92DF92EF92FF9207
:100120000F931F93CF93DF936C017A018B01C0E093
:10013000D0E0CE15DF0589F0D8016D918D01D60193
:10014000ED91FC910190F081E02DC6010995892B7C
:1001500011F47E0102C02196ECCFC701DF91CF914F
:100160001F910F91FF90EF90DF90CF900895089529
:1001700080E090E00895FC01538D448D252F30E000
:10018000842F90E0821B930B541710F0CF960895A4
:1001900001970895FC01918D828D981761F0828DF1
:1001A000DF01A80FB11D5D968C91928D9F5F9F73AB
:1001B000928F90E008958FEF9FEF0895FC01918D4D
:1001C000828D981731F0828DE80FF11D858D90E0BA
:1001D00008958FEF9FEF0895FC01918D228D892F57
:1001E00090E0805C9F4F821B91098F73992708953F
:1001F00083E691E00E94EC0021E0892B09F420E0E5
:10020000822F0895FC01848DDF01A80FB11DA35A30
:10021000BF4F2C91848D90E001968F739927848F26
:10022000A689B7892C93A089B1898C9180648C931D
:10023000938D848D981306C00288F389E02D808108
:100240008F7D80830895EF92FF920F931F93CF933A
:10025000DF93EC0181E0888F9B8D8C8D981305C016
:10026000E889F989808185FD24C0F62E0B8D10E088
:100270000F5F1F4F0F731127E02E8C8DE8120CC0FB
:100280000FB607FCFACFE889F989808185FFF5CFA1
:10029000CE010E940201F1CF8B8DFE01E80FF11D0E
:1002A000E35AFF4FF0820B8FEA89FB8980818062DD
:1002B00007C0EE89FF896083E889F98980818064BD
:1002C000808381E090E0DF91CF911F910F91FF90AB
:1002D000EF900895CF93DF93EC01888D8823C9F0C8
:1002E000EA89FB89808185FD05C0A889B9898C913F
:1002F00086FD0FC00FB607FCF5CF808185FFF2CFDA
:10030000A889B9898C9185FFEDCFCE010E940201A9
:10031000E7CFDF91CF91089580E090E0892B29F01D
:100320000E94F80081110C9400000895833081F040
:1003300028F4813099F08230A1F008958730A9F037
:100340008830B9F08430D1F4809180008F7D03C073
:10035000809180008F7780938000089584B58F7797
:1003600002C084B58F7D84BD08958091B0008F77E1
:1003700003C08091B0008F7D8093B00008951F93DB
:10038000CF93DF93282F30E0F901E255FF4F84919E
:10039000F901E656FF4FD491F901EA57FF4FC49196
:1003A000CC23C9F0162F81110E949601EC2FF0E0AA
:1003B000EE0FFF1FE458FF4FA591B4918FB7F8944B
:1003C000111105C09C91ED2FE095E92302C0EC913D
:1003D000ED2BEC938FBFDF91CF911F910895CF93B9
:1003E000DF9390E0FC01E656FF4F2491FC01EA57B1
:1003F000FF4F8491882361F190E0880F991FFC01E1
:10040000EE58FF4FC591D491FC01E458FF4FA591E0
:10041000B491611109C09FB7F89488812095822317
:100420008883EC912E230BC0623061F49FB7F8945F
:100430003881822F809583238883EC912E2B2C93F7
:100440009FBF06C08FB7F894E8812E2B28838FBFFB
:10045000DF91CF9108953FB7F89480913D0190913D
:100460003E01A0913F01B091400126B5A89B05C077
:100470002F3F19F00196A11DB11D3FBFBA2FA92F23
:10048000982F8827820F911DA11DB11DBC01CD01A0
:1004900042E0660F771F881F991F4A95D1F708958C
:1004A0008F929F92AF92BF92CF92DF92EF92FF9284
:1004B0000E942B024B015C0188EEC82E83E0D82EEF
:1004C000E12CF12C0E942B02DC01CB018819990947
:1004D000AA09BB09883E9340A105B10558F021E067
:1004E000C21AD108E108F10888EE880E83E0981E50
:1004F000A11CB11CC114D104E104F10419F7FF904F
:10050000EF90DF90CF90BF90AF909F908F90089525
:10051000CF93DF93009779F0FC0101900020E9F779
:100520003197AF01481B590BBC0183E691E00E9453
:100530008C00EC0102C0C0E0D0E042E050E062E29A
:1005400071E083E691E00E948C008C0F9D1FDF918B
:10055000CF9108950E94A1051F920F920FB60F929E
:1005600011242F933F934F935F936F937F938F93B8
:100570009F93AF93BF93EF93FF9383E691E00E9425
:100580000201FF91EF91BF91AF919F918F917F9168
:100590006F915F914F913F912F910F900FBE0F90F0
:1005A0001F9018951F920F920FB60F9211242F9340
:1005B0008F939F93EF93FF93E0917301F0917401F8
:1005C0008081E0917901F0917A0182FD12C09081E1
:1005D00080917C018F5F8F7320917D01821751F094
:1005E000E0917C01F0E0ED59FE4F958F80937C0106
:1005F00001C08081FF91EF919F918F912F910F907A
:100600000FBE0F901F9018951F920F920FB60F926A
:1006100011242F933F938F939F93AF93BF93809118
:10062000390190913A01A0913B01B0913C01309188
:10063000380123E0230F2D3720F40196A11DB11DB1
:1006400005C026E8230F0296A11DB11D2093380195
:100650008093390190933A01A0933B01B0933C0100
:1006600080913D0190913E01A0913F01B0914001E8
:100670000196A11DB11D80933D0190933E01A09371
:100680003F01B0934001BF91AF919F918F913F91F6
:100690002F910F900FBE0F901F9018951F920F92E1
:1006A0000FB60F9211241F932F933F934F935F9395
:1006B0006F937F938F939F93AF93BF93CF93DF936A
:1006C000EF93FF93E9EBF0E08491E5EAF0E0D49159
:1006D000E1E9F0E0C491CC23A1F081110E949601E0
:1006E000EC2FF0E0EE0FFF1FE859FF4FA591B491FA
:1006F000EC91ED2391E080E009F490E0C92FD82F30
:1007000002C0C0E0D0E01C2FC093370180913601B9
:10071000882349F08091350191E0980F909335013D
:10072000882309F4B4C080913501883010F010920C
:10073000350180914201882309F4C0C0CD2B29F0F6
:10074000809132018F5F80933201909131018091CD
:100750003001191759F0803510F09DE101C09BE080
:10076000890F809330011093310103C08C5E809318
:10077000300120913001203A08F4A0C080912E0170
:1007800090912F019695879590932F0180932E013C
:1007900030913201353028F0986090932F0180938A
:1007A0002E01205A20933001109232018091410194
:1007B000882309F45BC080912D018F5F80932D0108
:1007C0008C3008F47BC020912E0130912F01922FA4
:1007D0009F73E0E0F1E0DF0180E04D91941721F09C
:1007E0008F5F8031D1F780E040E1849FC001112408
:1007F00096E0369527959A95E1F7322F20E04191C2
:10080000341721F02F5F2031D1F720E0822B909117
:10081000610191110EC080932C019CEF980F9B31C8
:1008200040F01092410180912B018F5F80932B014A
:1008300045C0E091610191E09E0F90936101F0E06D
:10084000ED5BFE4F80839091610180912C019817A0
:1008500050F01092410180912A018F5F80932A010C
:1008600081E08093620110922D0128C080912E01B9
:1008700090912F0188339B4009F581E080934101DD
:1008800010922D01109261011092620117C060E078
:100890008AE00E94BF0160E08CE00E94BF011092DC
:1008A000360181E0809342018091330190913401BF
:1008B0000196909334018093330135CFFF91EF91EE
:1008C000DF91CF91BF91AF919F918F917F916F9168
:1008D0005F914F913F912F911F910F900FBE0F90FD
:1008E0001F901895CF93DF93CDB7DEB76E970FB6F5
:1008F000F894DEBF0FBECDBF789484B5826084BD0E
:1009000084B5816084BD85B5826085BD85B5816013
:1009100085BD80916E00816080936E001092810091
:10092000809181008260809381008091810081604C
:10093000809381008091800081608093800080910D
:10094000B10084608093B1008091B0008160809399
:10095000B00080917A00846080937A0080917A0060
:10096000826080937A0080917A00816080937A001F
:1009700080917A00806880937A001092C100E091A3
:100980007301F091740182E08083E0916F01F09136
:1009900070011082E0917101F09172018FEC8083FF
:1009A00010927B01E0917701F091780186E08083DD
:1009B000E0917501F0917601808180618083E09102
:1009C0007501F0917601808188608083E0917501E6
:1009D000F0917601808180688083E0917501F091CB
:1009E000760180818F7D80831092800089E08093E2
:1009F000810088EE93E09093890080938800809135
:100A00006F00826080936F0061E08CE00E94EF01D4
:100A100060E08BE00E94EF0161E08AE00E94EF015C
:100A200060E08AE00E94BF0180914201811105C00F
:100A300081E0809342011092410185E291E00E94A1
:100A4000880261E08DE00E94EF01809162018823BD
:100A5000E1F380916201882309F437C0409161017C
:100A600043504E3108F04EE150E064E471E0CE01B5
:100A700001960E94A6051092620120916101E3E4B3
:100A8000F1E08FEF9FEF215098F031918327082EEE
:100A90008295807F8025092E982F82958F70082659
:100AA000869598278927880F880F880F8025EBCF98
:100AB000883B904F51F461E08DE00E94BF010E949D
:100AC0005002CE0101960E94880260E08DE00E94F3
:100AD000BF010E9450020E948C01B7CFE3E6F1E013
:100AE0001382128288EE93E0A0E0B0E084839583C5
:100AF000A683B78384E191E09183808385EC90E0C5
:100B00009587848784EC90E09787868780EC90E0D7
:100B1000918B808B81EC90E0938B828B82EC90E0C8
:100B2000958B848B86EC90E0978B868B118E128E42
:100B3000138E148E0895EE0FFF1F0590F491E02D93
:100B4000099481E090E0F8940C94AF05FB01DC017E
:100B500002C001900D9241505040D8F70895F8948A
:020B6000FFCFC5
:100B62000D0E131516191A1C232526292A2C323488
:100B72000000000023018C00BB006A01EC00CA00E7
:0A0B8200DE000D0A00476F2021007D
:00000001FF
